:104D60002F4F5637362F4D312E626D70002F4F5614
:104D700037362F4D322E626D70002F4F5637362F3B
:104D80004D332E626D70002F4F5637362F4D342E17
:104D9000626D70002F4F5637362F4D352E626D7075
:104DA000002F4F5637362F4D362E626D70002F4F25
:104DB0005637362F4D372E626D70002F4F563736CF
:104DC0002F4D382E626D70002F4F5637362F4D39CC
:104DD0002E626D70002F4F5637362F4D31302E62B8
:104DE0006D70002F4F5637362F4D31312E626D705A
:104DF000002F4F5637362F4D31322E626D70002FF7
:104E00004F5637362F4D31332E626D70002F4F566F
:104E100037362F4D31342E626D70002F4F56373696
:104E20002F4D31352E626D70002F4F5637362F4D76
:104E300031362E626D70002F4F5637362F4D313779
:104E40002E626D70002F4F5637362F4D31382E623F
:104E50006D70002F4F5637362F4D31392E626D70E1
:104E6000002F4F5637362F4D32302E626D70002F87
:104E70004F5637362F4D32312E626D70002F4F5600
:104E800037362F4D32322E626D70002F4F56373627
:104E90002F4D32332E626D70002F4F5637362F4D07
:104EA00032342E626D70002F4F5637362F4D32350B
:104EB0002E626D70002F4F5637362F4D32362E62D0
:104EC0006D70002F4F5637362F4D32372E626D7072
:104ED000002F4F5637362F4D32382E626D70002F0F
:104EE0004F5637362F4D32392E626D70002F4F5688
:104EF00037362F4D33302E626D70004F56373637B0
:104F000030B3F5CABCBBAF00544620436172642085
:104F10004572726F72210054462043617264204FC3
:104F20004B21007265706C617900686F6D65006C73
:104F3000617374006E65787400780002900373FFEB
:104F4000F3FFF4FF4D60FF4D6DFF4D7AFF4D87FF7E
:104F50004D94FF4DA1FF4DAEFF4DBBFF4DC8FF4D22
:104F6000D5FF4DE3FF4DF1FF4DFFFF4E0DFF4E1BF3
:104F7000FF4E29FF4E37FF4E45FF4E53FF4E61FF58
:104F80004E6FFF4E7DFF4E8BFF4E99FF4EA7FF4E9B
:0D4F9000B5FF4EC3FF4ED1FF4EDFFF4EEDCB
:0484520041002C00B9
:1084BA00E4F594F593F592F591F596F595F5B2F5FF
:0684CA00B1F5B4F5B32288
:103B5F0090028AE0FEA3E090022E75F0031218FD8A
:103B6F00EE75F003A42583F583E0FBA3E0FAA3E051
:013B7F00F94C
:103B8000E49002A0F0A3F09002ACF09002B0F0122A
:103B90005E6BEF6003023E3E7B019002B704F0A330
:103BA0007402F0A3749EF07A00792D7D367C0012A9
:103BB000349F90029EE07004A3E0643660037F01AE
:103BC0002290003FE09002AEF0900044E0FE9000B2
:103BD00043E07C002400FFEC3EFE9002A4F0A3EF43
:103BE000F09002AEE0FD90022DF090002AEEF0A3DE
:103BF000EFF0900049E0131313541F9002B1F0ED61
:103C0000FF7E00C394EF74809480500DC374F09FC6
:103C1000FFE49EC313EF138001E49002ADF0900225
:103C2000A4E0FEA3E0FFC3942BEE94015011C374F3
:103C3000409F9002A3F074019E9002A2F08007E4DE
:103C40009002A2F0A3F09002ADE09002AFF09002DB
:103C5000A2E0FFA3E09002A6CFF0A3EFF07F021254
:103C60007E359002AFE0F9FF7E00C006C0079002EB
:103C7000A6E0FCA3E0FD9002AEE0FFE92FFFE433F5
:103C8000CF24FFFBEF34FFFA9002A4E0FEA3E0FF95
:103C9000A3E0F8A3E02FFFE83ECF24FFCF34FF904E
:103CA00002E0F0A3EFF0D007D006128083D2CD90CF
:103CB00002B77401F0A37402F0A3749EF07B017A42
:103CC00000792D7D007C0212349FE49002A8F0A3BD
:103CD000F09002A8E0FEA3E0FFC3EE940250D09063
:103CE00002B1E0F9640270449002B0E0146028046C
:103CF0006003023DA7742D2FF58274003EF583E02A
:103D0000FD541FFF9002AAE4F0A3EFF0ED54E0256C
:103D1000E0FFE433FE806B9002A8E0FEA3E0242DD8
:103D2000F58274003EF583E025E0806DE964037060
:103D3000769002B0E014602814604B240270689002
:103D400002A8E0FEA3E0242DF58274003EF583E096
:103D5000131313541FFF9002AAE4F0A3EFF080475F
:103D60009002A8E0FEA3E0242DF58274003EF583C6
:103D7000E075F008A4FFE5F05407FEEF54E0FF9073
:103D800002ABE02F801A9002A8E0FEA3E0242DF5FC
:103D90008274003EF583E054F8FE9002ABE024000C
:103DA000F09002AAE03EF09002B0E004F0A3E0FF41
:103DB0009002B0E06F70769002AAE0FCA3E0FDEC08
:103DC000F5A08D80E49002AAF0A3F09002B0F0C2BA
:103DD000C2D2C29002AFE004F09002ADE0FFFDA3BA
:103DE000E02DFDE433FCA3E07A00B50540EAB5041C
:103DF0003C9002A7E024FFF09002A6E034FFF09090
:103E000002AFEFF09002A4E0FEA3E0FFC39002A394
:103E1000E09FFF9002A2E09EFE9002A6E0B5060D94
:103E2000A3E0B507087F01127E357F00229002A92A
:103E3000E004F070069002A8E004F0023CD17F019B
:013E4000225F
:107B44009002E0E4F0A374EFF0FB7A00E4FDFCFFA4
:107B5400FE128083900495E06402706CC2B5C2C5C5
:107B6400D2C5C2C5D2B5D2C5D2CD90029E1218A834
:107B740000000000E4FF7EE1FDFC90029EE0F8A31B
:107B8400E0F9A3E0FAA3E0FBC31217875033C2C5A0
:107B94008590A0D2C5C2C5859080D2C5C2C2D2C2CA
:107BA40090029EE0FCA3E0FDA3E0FEA3E02401FF1D
:107BB400E43EFEE43DFDE43CFC90029E12189C80F1
:087BC400B3D2A8E4900495F08F
:017BCC002296
:104B1A0090028AE0FEA3E090022E75F0031218FDBF
:104B2A00EE75F003A42583F583E0FBA3E0FAA3E086
:014B3A00F981
:0B4B3B0090029EEBF0A3EAF0A3E9F06B
:104B4600E49002A7F0A3F0A3F0A374EFF07F0112A4
:104B560084E590029EE0FBA3E0FAA3E0F9125E6B07
:104B6600EF6003024D5DC2B57B019002B704F0A36E
:104B76007402F0A374A1F07A00792D7D367C0012C0
:104B8600349F90029EE0FBA3E0FAA3E0F9125E6B6D
:104B9600E4FF1284E59002A3E4F0A3741BF09002F4
:104BA600A7E0FEA3E0FFA3E0FCA3E0FD1272E29003
:104BB60002ABEEF0A3EFF09002ABE0FCA3E0FDEC5D
:104BC600C313FEED13FFEE547FFEEF54E0FF7C00AF
:104BD600ED541F2FFFEC3E9002ABF0A3EFF0FD90DB
:104BE60002A4E025E0FB9002A3E033FA742D2BF536
:104BF6008274003AF583EDF09002ABE0FF742E2B41
:104C0600F58274003AF583EFF09002A8E004F070A4
:104C1600069002A7E004F09002A4E004F07006906B
:104C260002A3E004F0C39002A3E094015003024BF8
:104C3600A49002B27401F0A37402F0A374A1F07BF5
:104C4600017A00792D7D007C02122D23E49002A5C5
:104C5600F0A3F0E49002A3F0A3F09002A7E0FEA375
:104C6600E0FFA3E0FCA3E0FD1272E29002ABEEF0DF
:104C7600A3EFF09002ABE0FCA3E0FDECC313FEED66
:104C860013FFEE547FFEEF54E0FF7C00ED541F2F20
:104C9600FFEC3E9002ABF0A3EFF0FD9002A4E025FE
:104CA600E0FB9002A3E033FA742D2BF58274003AF0
:104CB600F583EDF09002ABE0FF742E2BF5827400C5
:104CC6003AF583EFF09002A8E004F070069002A790
:104CD600E004F09002A7E07004A3E064F070149082
:104CE60002A7F0A3F09002AAE024FFF09002A9E048
:104CF60034FFF09002A4E004F070069002A3E004F2
:104D0600F0C39002A3E094015003024C609002B2FB
:104D16007401F0A37402F0A374A1F07B017A007908
:104D26002D7D007C02122D239002A6E004F0700671
:104D36009002A5E004F0C39002A6E094FE9002A5BE
:104D4600E094005003024C591285847FD07E0712EE
:094D56008235D2B57F00227F01F5
:014D5F002231
:063E41007B017A02799971
:0B3E470090029EEBF0A3EAF0A3E9F06C
:103E520078BD7C027D017BFF7A4F793B7E007F0833
:103E620012144730B70302402F7F017E00128235C1
:103E720030B70302402FD2CCC2C47F021283A77F85
:103E82009012854C9002A7EFF0E4FF12854C90024D
:103E9200A7EFF07FD012854C9002A8EFF0E4FF125A
:103EA200854C9002A9EFF07F9012854C9002AAEF08
:103EB200F0E4FF12854C9002ABEFF07FD012854CFC
:103EC2009002ACEFF0E4FF12854C9002ADEFF07F70
:103ED2009012854C9002AEEFF09002A7E075F020B0
:103EE200A4FFA3E0131313541FFDEF4DFF9002B183
:103EF200E5F0F0A3EFF09002ABE075F020A4FFA391
:103F0200E0131313541FFDEF4DFF9002B3E5F0F0E1
:103F1200A3EFF09002A9E075F020A4FFA3E0131331
:103F220013541FFDEF4DFF9002AFE5F0F0A3EFF049
:103F32009002ADE075F020A4FFAEF0A3E0131313DE
:103F4200541FFDEF4DFFC39002B0E09F9002AFE01F
:103F52009E4012EF2405FDE43EFCC3A3E09D9002C7
:103F6200AFE09C40229002AFE0FCA3E0FDD39FECC7
:103F72009E400302401FED2405FDE43CFCC3EF9D7F
:103F8200EE9C400302401F9002B1E0FCA3E0FDA3BF
:103F9200E0FAA3E0FBD39DEA9C5014EB2405FDE478
:103FA2003AFCC39002B2E09D9002B1E09C402A909C
:103FB20002B3E0FCA3E0FD9002B1E0FAA3E0FBD380
:103FC2009DEA9C5058EB2405FDE43AFCC39002B4F0
:103FD200E09D9002B3E09C50449002A5E4F0A3045B
:103FE200F09002B0E02FFF9002AFE03EC313FEEF6D
:103FF20013FF9002A1EEF0A3EFF09002B3E0FEA354
:10400200E0FF9002B2E02FFF9002B1E03EC313FE48
:10401200EF13FF9002A3EEF0A3EFF08007E490020B
:10402200A5F0A3F0E4FF1283A7D2C4C2CC9002BDD4
:10403200E0FCA3E0FDEC1212BD7B007A40791C7813
:104042004612121BC004C005C006C0079002A1E0C0
:10405200FCA3E0FDE41212BDD003D002D001D000D7
:10406200121112C004C005C006C0079002C1E0FCD4
:10407200A3E0FDEC1212BDD003D002D001D0001299
:1040820010211212F690029EE0FBA3E0FAA3E0F9DF
:10409200EE8FF01216039002BFE0FCA3E0FDEC12DB
:1040A20012BD7B007A40791C784612121BC004C0F4
:1040B20005C006C0079002A3E0FCA3E0FDE41212D3
:1040C200BDD003D002D001D000121112C004C0052D
:1040D200C006C0079002C3E0FCA3E0FDEC1212BDD3
:1040E200D003D002D001D0001210211212F6900299
:1040F2009EE0FBA3E0FAA3E0F9900002EE8FF0123B
:0D41020016229002A5A3E09000040214C54F
:10000600782E7C027D017BFF7A4F79437E007F5AF2
:10001600121447E4900288F0A3F0A3F0A304F0A31F
:10002600F0A3742CF0E4900292F0A304F0758180A2
:100036001284BA12537312855AE4FFFE127F0D1210
:10004600586512858B7B017A00790012241612827C
:10005600DBE4F5927591FFD288D2A8D2AFFFFE12EB
:100066007F0D7F01127E35127C51EF60317BFF7A66
:100076004E79FB74FF9002A5F0A3F0A3E4F0A374FD
:100086001FF07D967C007F3C7E00126C927FD07EB6
:1000960007128235C2A8C2AF9002927401F01258BC
:1000A60065EF6003020B147BFF7A4F7917E4900229
:1000B600A5F0A3F074FFA3F0A3F07D147C007F5A93
:1000C6007E00126C92900292E06401700302101995
:1000D600C2B69002A4E4F0A374F0F0FB7A007DB0FF
:1000E6007C007F0A7E001264681284BA125373126F
:1000F600855AE4FFFE127F0D90002CE06003020497
:10010600D9127B4474FF9002A4F0A3F0A37401F00B
:100116007B197A007D0DFC7F787E001260E99002E3
:10012600A27401F0A37425F074FFA3F0A3F07B443E
:100136007DF57C007F141273B57BFF7A4F7923908F
:1001460002A574F8F0A3E4F074FFA3F0A3F07D0712
:100156007C017F147E00126C929002B4E4F0A374CA
:10016600F0F074FFA3F0A3F07B507A00E4FDFC7F6F
:1001760050FE1275F99002B4E4F0A374F0F074FF27
:10018600A3F0A3F07BA07A00E4FDFC7FA0FE12752D
:10019600F99002B4E4F0A37450F074FFA3F0A3F056
:1001A6007BF07A007D507C00E4FFFE1275F9900228
:1001B600B4E4F0A374A0F074FFA3F0A3F07BF07A8C
:1001C600007DA07C00E4FFFE1275F99002A4740184
:1001D600F0A37425F074FFA3F0A3F07BB47A007D3E
:1001E600F57C007FB47E001276B3123E4190029DEC
:1001F600E0640160030200FEF0900299E0FEA3E0D5
:10020600FFD39414EE94004031EF9444EE940050E2
:1002160029A3E0FEA3E0FF94F5EE9400401CEF94C2
:1002260025EE94015014C2B57F647E00128235D249
:10023600B590002C7403F00204D2900299E0FEA35C
:10024600E0FFD39464EE940050030203DBEF948C3A
:10025600EE940040030203DBA3E0FEA3E0FF94F963
:10026600EE940050030203DBEF9420EE940140036A
:100276000203DB90028E1218A800000000E47F053E
:10028600FEFDFC90028EE0F8A3E0F9A3E0FAA3E0FD
:10029600FBC312178740030203DB127B4474FF90F3
:1002A60002A4F0A3F0A37401F07B197A007D0DFC83
:1002B6007F787E001260E99002A27401F0A3742593
:1002C600F074FFA3F0A3F07B447DF57C007F14124D
:1002D60073B57BFF7A4F79239002A574F8F0A3E4F7
:1002E600F074FFA3F0A3F07D077C017F147E00125B
:1002F6006C929002B4E4F0A374F0F074FFA3F0A340
:10030600F07B507A00E4FDFC7F50FE1275F99002F6
:10031600B4E4F0A374F0F074FFA3F0A3F07BA07A2A
:1003260000E4FDFC7FA0FE1275F99002B4E4F0A390
:100336007450F074FFA3F0A3F07BF07A007D507C3C
:1003460000E4FFFE1275F99002B4E4F0A374A0F085
:1003560074FFA3F0A3F07BF07A007DA07C00E4FF9D
:10036600FE1275F99002A47401F0A37425F074FFCF
:10037600A3F0A3F07BB47A007DF57C007FB47E0009
:100386001276B3124B1A90028BE02401FF90028A78
:10039600E03400FED3EF941EEE648094804006E4C1
:1003A600F0A3F0800E90028BE004F0700690028AB3
:1003B600E004F090028EE0FCA3E0FDA3E0FEA3E0E3
:1003C6002401FFE43EFEE43DFDE43CFC90028E1277
:1003D600189C020283900299E0FEA3E0FFD394B436
:1003E600EE940050030200FEEF94DCEE940040030E
:1003F6000200FEA3E0FEA3E0FF94DCEE94005003AF
:100406000200FEEF9427EE940140030200FEC2B5FF
:100416007F647E00128235D2B590002CE02401FF65
:10042600E433FED3EF9403EE648094804003020429
:10043600CDE004F0D2A8D2AFE4FFFE127F0D7F011B
:10044600127E35127BCDEF60317BFF7A4E79FB74DD
:10045600FF9002A5F0A3F0A3E4F0A3741FF07D962D
:100466007C007F3C7E00126C927FD07E0712823524
:10047600C2A8C2AF9002927401F0125865EF6003F1
:10048600020B147BFF7A4F7917E49002A5F0A3F0D4
:1004960074FFA3F0A3F07D147C007F5A7E00126CDB
:1004A60092900292E064017003021019C2B69002A3
:1004B600A4E4F0A374F0F0FB7A007DB07C007F0A20
:1004C6007E001264688005E490002CF07F647E0054
:1004D60012823590002CE064016003020706127B4D
:1004E6004474FF9002A4F0A3F0A37401F07B197A80
:1004F600007D0DFC7F787E001260E99002A27401F7
:10050600F0A37425F074FFA3F0A3F07B447DF57C83
:10051600007F141273B57BFF7A4F79239002A5747E
:10052600F8F0A3E4F074FFA3F0A3F07D077C017F4D
:10053600147E00126C929002A47401F0A37425F04C
:1005460074FFA3F0A3F07BB47A007DF57C007FB442
:100556007E001276B3123E4190029DE06401600374
:100566000204D9F0900299E0FEA3E0FFD39414EEC2
:1005760094004031EF9444EE94005029A3E0FEA38A
:10058600E0FF94F5EE9400401CEF9425EE940150A4
:1005960014C2B57F647E00128235D2B590002C74E9
:1005A60003F00206FF900299E0FEA3E0FFD39464F5
:1005B600EE9400404DEF948CEE94005045A3E0FE7F
:1005C600A3E0FF94F9EE94004038EF9420EE9401F6
:1005D6005030124B1A90028BE02401FF90028AE001
:1005E6003400FED3EF941EEE648094804006E4F05F
:1005F600A3F0800E90028BE004F0700690028AE071
:1006060004F0900299E0FEA3E0FFD394B4EE9400C8
:1006160050030204D9EF94DCEE940040030204D99F
:10062600A3E0FEA3E0FF94DCEE940050030204D99D
:10063600EF9427EE940140030204D9C2B57F647E8D
:1006460000128235D2B590002CE02401FFE433FE7F
:10065600D3EF9403EE6480948040030206FAE0042C
:10066600F0D2A8D2AFE4FFFE127F0D7F01127E35D5
:10067600127CD0EF60317BFF7A4E79FB74FF9002DB
:10068600A5F0A3F0A3E4F0A3741FF07D967C007F91
:100696003C7E00126C927FD07E07128235C2A8C2C1
:1006A600AF9002927401F0125865EF6003020B14CA
:1006B6007BFF7A4F7917E49002A5F0A3F074FFA3AD
:1006C600F0A3F07D147C007F5A7E00126C9290029B
:1006D60092E064017003021019C2B69002A4E4F01D
:1006E600A374F0F0FB7A007DB07C007F0A7E0012D6
:1006F60064688005E490002CF07F647E00128235E9
:1007060090002CE06402600302093A127B4474FFF5
:100716009002A4F0A3F0A37401F07B197A007D0D7A
:10072600FC7F787E001260E99002A27401F0A37447
:1007360025F074FFA3F0A3F07B447DF57C007F14C5
:100746001273B57BFF7A4F79239002A574F8F0A354
:10075600E4F074FFA3F0A3F07D077C017F147E0014
:10076600126C929002A47401F0A37425F074FFA396
:10077600F0A3F07BB47A007DF57C007FB47E001296
:1007860076B3E4FFFE1248CB123E4190029DE06430
:10079600016003020706F0900299E0FEA3E0FFD392
:1007A6009414EE94004031EF9444EE94005029A343
:1007B600E0FEA3E0FF94F5EE9400401CEF9425EED6
:1007C60094015014C2B57F647E00128235D2B59072
:1007D600002C7403F0020933900299E0FEA3E0FFB7
:1007E600D39464EE9400404DEF948CEE9400504503
:1007F600A3E0FEA3E0FF94F9EE94004038EF9420C6
:10080600EE94015030124B1A90028BE02401FF90B7
:10081600028AE03400FED3EF941EEE64809480409A
:1008260006E4F0A3F0800E90028BE004F0700690D0
:10083600028AE004F0900299E0FEA3E0FFD394B4AC
:10084600EE94005003020706EF94DCEE940040039A
:10085600020706A3E0FEA3E0FF94DCEE940050033B
:10086600020706EF9427EE94014003020706C2B57D
:100876007F647E00128235D2B590002CE02401FF01
:10088600E433FED3EF9403EE648094805006E004D4
:10089600F0020933E490002CF0E004F0D2A8D2AFC5
:1008A600E4FFFE127F0D7F01127E35127C51EF6050
:1008B600317BFF7A4E79FB74FF9002A5F0A3F0A37B
:1008C600E4F0A3741FF07D967C007F3C7E00126CE2
:1008D600927FD07E07128235C2A8C2AF9002927470
:1008E60001F0125865EF6003020B147BFF7A4F7913
:1008F60017E49002A5F0A3F074FFA3F0A3F07D1413
:100906007C007F5A7E00126C92900292E064017025
:1009160003021019C2B69002A4E4F0A374F0F0FB2F
:100926007A007DB07C007F0A7E001264687F647E58
:100936000012823590002CE0640360030200F8FF89
:10094600FE127F0D9002A27401F0A37425F074FFCD
:10095600A3F0A3F07B447DF57C007F141273B57B76
:10096600FF7A4F792A9002A574F8F0A3E4F074FF99
:10097600A3F0A3F07D077C017F147E00126C929099
:1009860002A27401F0A37425F074FFA3F0A3F07B18
:10099600907DF57C007F601273B57BFF7A4F792FCF
:1009A6009002A574F8F0A3E4F074FFA3F0A3F07D21
:1009B600077C017F607E00126C929002A27401F0A7
:1009C600A37425F074FFA3F0A3F07BDC7DF57C0017
:1009D6007FAC1273B57BFF7A4F79349002A574F819
:1009E600F0A3E4F074FFA3F0A3F07D077C017FACD5
:1009F6007E00126C92123B5F90028AE0FEA3E090AA
:100A0600022E75F0031218FDEE75F003A42583F58A
:100A160083E0FBA3E0FAA3E0F9900288E0FEA3E0FE
:100A2600FF90028CE0FCA3E0FDE49002A5F0A3F0A9
:100A360074FFA3F0A3F0126C9290028AE0FEA3E08A
:100A460090022E75F0031218FDEE75F003A42583AF
:100A5600F583E0FBA3E0FAA3E0F91284FAEF78034A
:100A6600C333CE33CED8F9020F67123E4190029DB2
:100A7600E0640170F5F0900299E0FEA3E0FFD394E4
:100A860014EE94005003020B80EF9444EE94004061
:100A960003020B80A3E0FEA3E0FF94F5EE94005062
:100AA60003020B80EF9425EE94014003020B80C2F3
:100AB600B57F647E00128235D2B5E490002CF0E05A
:100AC60004F0D2A8D2AFE4FFFE127F0D7F01127EA2
:100AD60035127C51EF60317BFF7A4E79FB74FF90C3
:100AE60002A5F0A3F0A3E4F0A3741FF07D967C00AA
:100AF6007F3C7E00126C927FD07E07128235C2A8A0
:100B0600C2AF9002927401F0125865EF60207BFF2D
:100B16007A4F79089002A574F8F0A3E4F074FFA365
:100B2600F0A3F07D147C007F5A7E00026C927BFF5E
:100B36007A4F7917E49002A5F0A3F074FFA3F0A30F
:100B4600F07D147C007F5A7E00126C92900292E037
:100B560064017003021019C2B69002A4E4F0A374F3
:100B6600F0F0FB7A007DB07C007F0A7E001264689C
:100B76007F647E001282350200F8900299E0FEA39F
:100B8600E0FFD39460EE94005003020DCCEF9490F6
:100B9600EE94004003020DCCA3E0FEA3E0FF94F523
:100BA600EE94005003020DCCEF9425EE9401400321
:100BB600020DCCE4FFFE127F0D9002A27401F0A399
:100BC6007425F074FFA3F0A3F07B447DF57C007FD1
:100BD600141273B57BFF7A4F792A9002A574F8F048
:100BE600A3E4F074FFA3F0A3F07D077C017F147EDD
:100BF60000126C929002A27401F0A37425F074FFA7
:100C0600A3F0A3F07B907DF57C007F601273B57B2B
:100C1600FF7A4F792F9002A574F8F0A3E4F074FFE1
:100C2600A3F0A3F07D077C017F607E00126C92909A
:100C360002A27401F0A37425F074FFA3F0A3F07B65
:100C4600DC7DF57C007FAC1273B57BFF7A4F79347F
:100C56009002A574F8F0A3E4F074FFA3F0A3F07D6E
:100C6600077C017FAC7E00126C92C2B57F647E0069
:100C7600128235D2B590028AE07004A3E064017056
:100C86000A90028AF0A3741EF0800E90028BE02474
:100C9600FFF090028AE034FFF0123B5FEF60030240
:100CA6000DCC900288F0A3F090028C04F0A3742C73
:100CB600F090028AE0FEA3E090022E75F00312186F
:100CC600FDEE75F003A42583F583E0FBA3E0FAA30C
:100CD600E0F9E49002A5F0A3F074FFA3F0A3F07D81
:100CE6002C7C01E4FFFE126C9290028AE0FEA3E0E7
:100CF60090022E75F0031218FDEE75F003A42583FD
:100D0600F583E0FBA3E0FAA3E0F91284FAEF780397
:100D1600C333CE33CED8F92414FFE43EFE900289C5
:100D2600E02FF0900288E03EF0A3E0FFC0079002BB
:100D36002DE0FFE4FCFDFE9002A112189CE4900257
:100D4600A5F0A3F074FFA3F0A3F090028CE0FCA33F
:100D5600E0FDD007124F9D900289E0241EF090021C
:100D660088E03400F0E0FEA3E0FF90028CE0FCA3F4
:100D7600E0FD7BFF7A4F7939E49002A5F0A3F07489
:100D8600FFA3F0A3F0126C92900289E02410F09079
:100D96000288E03400F0A3E0FFC00790002AE0FEDE
:100DA600A3E0FFE4FCFD9002A112189CE49002A5CA
:100DB600F0A3F074FFA3F0A3F090028CE0FCA3E094
:100DC600FDD007124F9D900299E0FEA3E0FFD39459
:100DD600ACEE94005003020A70EF94DCEE940040EF
:100DE60003020A70A3E0FEA3E0FF94F5EE94005020
:100DF60003020A70EF9425EE94014003020A70E4A0
:100E0600FFFE127F0D9002A27401F0A37425F07408
:100E1600FFA3F0A3F07B447DF57C007F141273B52D
:100E26007BFF7A4F792A9002A574F8F0A3E4F07458
:100E3600FFA3F0A3F07D077C017F147E00126C9265
:100E46009002A27401F0A37425F074FFA3F0A3F03E
:100E56007B907DF57C007F601273B57BFF7A4F79BE
:100E66002F9002A574F8F0A3E4F074FFA3F0A3F0AA
:100E76007D077C017F607E00126C929002A2740155
:100E8600F0A37425F074FFA3F0A3F07BDC7DF57C62
:100E9600007FAC1273B57BFF7A4F79349002A5744C
:100EA600F8F0A3E4F074FFA3F0A3F07D077C017FC4
:100EB600AC7E00126C92C2B57F647E00128235D27F
:100EC600B590028AE07004A3E0641E700890028A5E
:100ED600F0A3F0800E90028BE004F0700690028A78
:100EE600E004F0123B5FEF6003020A70900288F0A4
:100EF600A3F090028C04F0A3742CF090028AE0FE1A
:100F0600A3E090022E75F0031218FDEE75F003A40F
:100F16002583F583E0FBA3E0FAA3E0F9E49002A5BC
:100F2600F0A3F074FFA3F0A3F07D2C7C01E4FFFE98
:100F3600126C9290028AE0FEA3E090022E75F003F6
:100F46001218FDEE75F003A42583F583E0FBA3E0FC
:100F5600FAA3E0F91284FAEF7803C333CE33CED87E
:100F6600F92414FFE43EFE900289E02FF0900288F7
:100F7600E03EF0A3E0FFC00790022DE0FFE4FCFD99
:100F8600FE9002A112189CE49002A5F0A3F074FF53
:100F9600A3F0A3F090028CE0FCA3E0FDD007124F73
:100FA6009D900289E0241EF0900288E03400F0E073
:100FB600FEA3E0FF90028CE0FCA3E0FD7BFF7A4FEE
:100FC6007939E49002A5F0A3F074FFA3F0A3F01220
:100FD6006C92900289E02410F0900288E03400F0D0
:100FE600A3E0FFC00790002AE0FEA3E0FFE4FCFDBB
:100FF6009002A112189CE49002A5F0A3F074FFA33E
:10100600F0A3F090028CE0FCA3E0FDD007124F9D08
:03101600020A705B
:0110190022B4
:1083F200E4FDFCC3ED9FEC9E5016E4FBEBC394033B
:108402007480948050030B80F30DBD00010C80E357
:018412002247
:10841300E4FDFCC3ED9FEC9E5016E4FBEBC3940517
:108423007480948050030B80F30DBD00010C80E336
:018433002226
:088235009002C5EEF0A3EFF08A
:10823D00E4A3F0A3F09002C5E0FEA3E0FFC390021B
:10824D00C8E09F9002C7E09E50157FFA7E00128411
:0F825D0013A3E004F070DE9002C7E004F080D6B7
:01826C0022EF
:10848900E4FEEEC39F5012E4FDEDC394647480943E
:098499008050030D80F30E80E910
:0184A20022B7
:0B8567008FA0AF058F80C2C2D2C222DD
:04852F007F367E0015
:0B853300AD07AC06C2CDECFF0285676F
:0A84D000128533E4FF1284DAE4FFA2
:0B84DA00AD07AC06D2CDECFF028567B9
:0E853E00AB05AA04128533AE02AF030284DA45
:108083009002DAEEF0A3EFF0A3ECF0A3EDF07F2A79
:108093007E001285339002DAE0FF1284DAA3E0FF58
:1080A3001284DAEAFF1284DAAF037E001284DA7FE5
:1080B3002B128533A3E0FF1284DAA3E0FF1284DAE4
:1080C3009002E0E0FF1284DAA3E0FF1284DA7F2C4F
:0380D300028533F0
:0C72E2009002ADEEF0A3EFF0AB05AA04A3
:1072EE00E4A3F0A3F0FD7F2AFE1285339002ADE0F9
:1072FE00FF1284DAA3E0FF1284DA9002ADE0FF12EF
:10730E0084DAA3E0FF1284DA7F2B128533EAFF12B0
:10731E0084DAAF031284DAEAFF1284DAAF037E0056
:10732E001284DA7F2E1285337595FFE4F5967593E8
:10733E00FFF594D2CDC2C4D2C47F021283F2C2C46E
:10734E00D2C49002AFE5A0F0A3E580F07F027E00EC
:10735E001283F2C2C4D2C4ADA0E4F595F596F593AE
:10736E00F5949002B0E07E007802CEC313CE13D80F
:10737E00F97805C333CE33CED8F9FBAA069002AF07
:10738E00E07E007803CEC313CE13D8F933333354D3
:10739E00F84AFA7E00ED7803CEC313CE13D8F9FF68
:0673AE00EE4AFEEF4BFF6A
:0173B40022B6
:107E3500EF14B408005064907E4A75F003A4C5831E
:107E450025F0C58373027E62027E69027E70027E22
:107E550077027E7E027E85027E8C027E9312852FBE
:107E65007F08802F12852F7F88802812852F7F48D5
:107E7500802112852F7FC8801A12852F7F288013B5
:107E850012852F7F68800C12852F7FA880051285AB
:0C7E95002F7FE81284DA7F2C1285332244
:10537300D2CCD2C4D2C27F057E00128235C2CC7F8A
:10538300CF7E00128533E4FF1284DA7FC11284DA00
:105393007F301284DA7FED1285337F641284DA7FE3
:1053A300031284DA7F121284DA7F811284DA7FE8AF
:1053B3001285337F851284DA7F101284DA7F7A12A2
:1053C30084DA7FCB1285337F391284DA7F2C1284FF
:1053D300D57F341284DA7F021284DA7FF7128533A1
:1053E3007F201284DA7FEA1284D07FC01285337F54
:1053F3001B1284DA7FC11285337F011284DA7FC5E1
:105403001285337F301284DA7F301284DA7FC71239
:1054130085337FB71284DA7F361285337F0812848F
:10542300DA7F3A1285337F551284DA7FB1128533DE
:10543300E4FF1284DA7F1A1284DA7FB61285337F8F
:105443000A1284DA7FA21284DA7FF2128533E4FF30
:105453001284DA7F261285337F011284DA7FE01209
:1054630085337F0F1284DA7F2A1284DA7F2812842D
:10547300DA7F081284DA7F0E1284DA7F081284DA64
:105483007F541284DA7FA91284DA7F431284DA7F8D
:105493000A1284DA7F0F1284DA1284D31284D37F40
:1054A300E1128533E4FF1284DA7F151284DA7F1761
:1054B3001284DA7F071284DA7F111284DA7F0612EC
:1054C30084DA7F2B1284DA7F561284DA7F3C1284CB
:1054D300DA7F051284DA7F101284DA7F0F1284DAFE
:1054E3007F3F1284DA7F3F1284DA7F0F1284DA7FE0
:1054F3002B1284D07F011284DA7F3F1284DA7F2A51
:105503001284D0E4FF1284DA7FEF1284DA7F11125F
:0E55130085337F781282357F297E0002853332
:101B240000000000000000000000000000000000B1
:101B34000000001010101010101000001818000001
:101B440000123624480000000000000000000000DD
:101B5400000000242424FE484848FE484848000069
:101B640000001038545450301814145454381010C1
:101B740000000044A4A8A8A8541A2A2A2A44000051
:101B840000000030484848506EA4948889760000CC
:101B940000606020C00000000000000000000000A1
:101BA40000020408081010101010100808040200A5
:101BB40000402010100808080808081010204000F1
:101BC400000000001010D63838D6101000000000B5
:101BD4000000000010101010FE1010101000000083
:101BE400000000000000000000000000606020C051
:101BF40000000000000000007F0000000000000062
:101C04000000000000000000000000006060000010
:101C140000000102020404080810102020404000C3
:101C2400000000182442424242424242241800006A
:101C3400000000107010101010101010107C000024
:101C44000000003C4242420404081020427E00008E
:101C54000000003C424204180402024244380000DE
:101C6400000000040C14242444447E04041E0000D8
:101C74000000007E404040586402024244380000A4
:101C84000000001C244040586442424224180000D2
:101C94000000007E444408081010101010100000CA
:101CA4000000003C4242422418244242423C0000CC
:101CB4000000001824424242261A0202243800007E
:101CC40000000000000018180000000018180000B0
:101CD40000000000000000100000000000101020B0
:101CE4000000000204081020402010080402000034
:101CF400000000000000FE000000FE0000000000E4
:101D040000000040201008040204081020400000D5
:101D14000000003C42426202040808001818000057
:101D240000000038445AAAAAAAAAB44244380000BF
:101D34000000001010182828243C444242E7000008
:101D4400000000F8444444784442424244F800000D
:101D54000000003E4242808080808042443800007F
:101D6400000000F8444242424242424244F8000029
:101D7400000000FC424848784848404242FC0000C9
:101D8400000000FC424848784848404040E00000D9
:101D94000000003C44448080808E84444438000029
:101DA400000000E7424242427E42424242E70000D3
:101DB4000000007C1010101010101010107C000097
:101DC4000000003E0808080808080808080888F009
:101DD400000000EE444850705048484444EE00006F
:101DE400000000E0404040404040404042FE0000CF
:101DF400000000EE6C6C6C6C5454545454D60000C7
:101E0400000000C7626252524A4A4A4646E2000053
:101E14000000003844828282828282824438000038
:101E2400000000FC424242427C40404040E000004E
:101E340000000038448282828282B2CA4C38060092
:101E4400000000FC4242427C4848444442E3000013
:101E54000000003E4242402018040242427C00003E
:101E6400000000FE92101010101010101038000026
:101E7400000000E74242424242424242423C0000E9
:101E8400000000E7424244242428281810100000CF
:101E9400000000D692929292AAAA6C444444000094
:101EA400000000E7422424181818242442E7000004
:101EB400000000EE444428281010101010380000D0
:101EC4000000007E840408081020204242FC000028
:101ED400001E1010101010101010101010101E0002
:101EE40000004040202010101008080404040202DE
:101EF400007808080808080808080808080878008E
:101F0400001C22000000000000000000000000008F
:101F1400000000000000000000000000000000FFBE
:101F240000606020C000000000000000000000000D
:101F3400000000000000003C421E2242423F00001C
:101F4400000000C0404040586442424264580000CF
:101F5400000000000000001C22404040221C000041
:101F6400000000060202021E22424242261B00001A
:101F7400000000000000003C427E4040423C000063
:101F84000000000F1110107E10101010107C0000C3
:101F9400000000000000003E444438403C42423C03
:101FA400000000C04040405C6242424242E7000000
:101FB400000000303000007010101010107C000081
:101FC4000000000C0C00001C040404040404447805
:101FD400000000C04040404E4850684844EE0000B5
:101FE400000000701010101010101010107C000071
:101FF40000000000000000FE4949494949ED000085
:1020040000000000000000DC6242424242E700009F
:10201400000000000000003C42424242423C0000FA
:1020240000000000000000D864424242447840E0CE
:10203400000000000000001E22424242221E02074D
:1020440000000000000000EE3220202020F80000F4
:10205400000000000000003E42403C02427C0000C0
:10206400000000000010107C10101010100C000074
:1020740000000000000000C642424242463B00000D
:1020840000000000000000E7422424281010000093
:1020940000000000000000D79292AAAA4444000065
:1020A400000000000000006E2418181824760000B8
:1020B40000000000000000E742242428181010E06B
:1020C400000000000000007E44081010227E000082
:1020D40000030404040404080404040404040300C2
:1020E400080808080808080808080808080808086C
:1020F4000060101010101008101010101010600064
:10210400304C43000000000000000000000000000C
:10211400C2E40004400440FFFE0440450021F8A14D
:10212400104AA0484010A01318EFF62210221023E2
:10213400F02210CFBC001FF00100FFFE89142548D7
:10214400112000007DF844087DF840007DF840909F
:102154007C6040B0470ED3EB000000080008040F79
:10216400FE080008000FFC0004000400247FF400B3
:10217400040004004800300000B9C20000007E3CA6
:1021840005D009501150155019503150D1505148B3
:1021940011481164125612FA54502000F0CD007EFA
:1021A40040144008FEFE882B50C8301ACE04001F8D
:1021B400E0122011601FF80008FF8800280010C6F4
:1021C400EB00020001007FFE042002400180024077
:1021D4000C30742E04240420082008201020202011
:1021E4000020B7C9000000FFC000400048005000B4
:1021F40060006000500048004000200022001200EF
:102204000A00060000C7EF0000200E20F020102472
:1022140010A4FEA830B03920546094501050108897
:102224001088110412061404CBAE00010001000151
:102234000801107D2005C005400920092011101156
:1022440018210EC104010005000200B9B20000000B
:102254000420042004207FFC042004200420042003
:10226400FFFE044006200C100818100C2008B3A42C
:1022740000080008100820084009800E000800FF2C
:10228400FE0A0009000880084009300A1C0C0808EE
:1022940000CCEC0000003FFC010001000100010043
:1022A4007FFE010001000280024004200818100E85
:1022B40020044000D2BB0000000000000000000029
:1022C40000000000047FFE00000000000000000089
:1022D40000000000000000C9AB000400040007F087
:1022E400082010403FF05110111011101FF0100081
:1022F4001004100410040FFC0000A3AC0000000044
:1023040000000000000000000000000000000000C9
:1023140000000030003000100020000000A1A300E5
:1023240000000000000000000000000000000000A9
:1023340000000000300048004800300000000000A9
:10234400B5B1000080109008980C9008A000803F60
:10235400FC000400041FFC0004000400043FFC0013
:10236400040000C7B000081006180420FFFE000097
:102374003E0822483E48224822483E4822482248F5
:102384002A0824280010B5E7000100010001003FDD
:10239400F8210821083FF82108210821083FF821E5
:1023A400080102010200FE0000D1B90000003FFE56
:1023B40020002080208020882FFC208020A02090D6
:1023C400209840904080BFFE00000000D6B5001069
:1023D40040186017FC1040208033F86208A3F822EC
:1023E4000823F8220823F8220822082FFE2000A33D
:1023F400BA0000000000000000000000000000001F
:102404000000000030003000000030003000000008
:022414000000C6
:0E410F009002AAEEF0A3EFF0A3ECF0A3EDF007
:10411D0012146DFF9002B6F09000011214869002F9
:10412D00B7F0C3EF9481748094804012E0FD944009
:10413D00748094804008EDF46004EFF470037F0107
:10414D00229002B7E0C3947F748094805006E024DF
:10415D00C0F080079002B7E024BFF09002B6E024D3
:10416D007FF0E0FF7E007C007DBE121A01A804A93D
:10417D0005AA06AB07A3E0FFE4FCFDFEEB2FFFEE67
:10418D003AFEED39FDEC38FCE47B20FAF9F8121615
:10419D004FE42FFFEE3420FEED3414FDE43CFC9093
:1041AD0002E1E4F0A37420F07B017A0279BA12796E
:1041BD00879002B3E07004A3E0640170030242AE85
:1041CD009002B5E070369002AAE0FAA3E0FBFFAED4
:1041DD0002C006C007A3E0FCA3E0FDEB240FFBE447
:1041ED003AFA9002ACE0FEA3E0240FFFE43E900209
:1041FD00E0F0A3EFF0D007D0061280839002B5E077
:10420D00640170369002AAE0FAA3E0FBFFAE02C093
:10421D0006C007A3E0FCA3E0FDEB240FFBE43AFA94
:10422D009002ACE0FEA3E0240FFFE43E9002E0F02C
:10423D00A3EFF0D007D006128083E49002B8F0907F
:10424D0002B8E0C394207480948040030243BBE421
:10425D00A3F09002B9E0C3940874809480503A9012
:10426D0002B8E024BAF582E43402F583E030E705C4
:10427D009002B180039002B3E0FEA3E0FF1284DA56
:10428D009002B8E024BAF582E43402F583E025E02B
:10429D00F09002B9E004F080B99002B8E004F0802B
:1042AD009E9002AAA3E09002B6F0E49002B8F090BE
:1042BD0002B8E0C394207480948040030243BBE4B1
:1042CD00A3F09002B9E0C394087480948040030277
:1042DD0043B29002AAE0FAA3E0FBFFAE02C007A32F
:1042ED00E0FCA3E0FD9002ACE0FFA3E09002E0CF84
:1042FD00F0A3EFF0D0071280839002B8E024BAF556
:10430D0082E43402F583E030E7479002B1E0FEA38A
:10431D00E0FF1284DA9002ABE004F070069002AA7E
:10432D00E004F09002B6E0FF7E00C39002ABE09F88
:10433D00FD9002AAE09EFCED64104C704EF0A3EFD0
:10434D00F09002ADE004F070429002ACE004F08019
:10435D003A9002ABE004F070069002AAE004F090EF
:10436D0002B6E0FF7E00C39002ABE09FFD9002AA73
:10437D00E09EFCED64104C7012F0A3EFF09002ADD6
:10438D00E004F070069002ACE004F09002B8E02476
:10439D00BAF582E43402F583E025E0F09002B9E04D
:1043AD0004F00242CF9002B8E004F00242BC7F005C
:0143BD0022DD
:087F0D0090029EEEF0A3EFF0DC
:107F15009002E07401F0A3743FF07BEF7A00E4FD7A
:107F2500FCFFFE128083E49002A0F0A3F0E490022F
:107F3500A2F09002A2E0C394F07480948050139054
:107F4500029EE0FEA3E0FF1284DA9002A2E004F0B4
:107F550080E09002A1E004F070069002A0E004F039
:0F7F6500C39002A1E094409002A0E0940140BEBE
:017F740022EA
:10802D009002B5FFE0FCA3E0FD9002B2E02DFD90C3
:0D803D0002B1E03CFC9002B7E0FAA3E0FBCA
:10804A009002BCEAF0A3EBF0A9079002BAECF0A305
:10805A00EDF0E9FB7A007E00C0079002BAE0FFA3C8
:10806A00E09002E0CFF0A3EFF0D0071280839002F5
:09807A00BCE0FEA3E0FF0284DA81
:10658700FBE0FFA3E09002B5CFF0A3EFF09002A4E9
:10659700E0FFA3E09002B7CFF0A3EFF090029EE0F8
:0465A700FEA3E0FF70
:1065AB009002AFEEF0A3EFF0A3ECF0A3EDF0A3EAB3
:1065BB00F0A3EBF0FF9002AFA3E02FFF9002B5E04A
:1065CB00FCA3E0FDC39002B2E09DFD9002B1E09C04
:1065DB001280419002B5A3E0FF9002AFA3E02FFF22
:1065EB009002B3E0FCA3E0FDC39002B2E09DFD90EE
:1065FB0002B1E09C1280419002B5A3E0FF9002AF84
:10660B00A3E02F9002B31280309002B3A3E0FF906F
:10661B0002AFA3E02F12802D9002B3A3E0FF9002F4
:10662B00AFA3E0C39F12802D9002B5A3E0FF9002B1
:10663B00AFA3E0C39FFF9002B31280319002B5A3CA
:10664B00E0FF9002AFA3E0C39FFF9002B3E0FCA377
:10665B00E0FDC39002B2E09DFD9002B1E09C128080
:10666B00419002B3A3E0FF9002AFA3E0C39FFF9062
:10667B0002B5E0FCA3E0FDC39002B2E09DFD9002E9
:0F668B00B1E09CFC9002B7E0FAA3E0FB02804A6A
:1075F9009002B0ECF0A3EDF09002AEEEF0A3EFF044
:087609009002B2EAF0A3EBF0DD
:107611006F7002EE6A70419002B0E0FFA3E0900249
:10762100B8CFF0A3EFF09002B4E0FEA3E0FF900228
:10763100B8E0FCA3E0FDC39FEC9E501C9002AEA3FA
:10764100E0FF9002B61280459002B9E004F070D6D6
:107651009002B8E004F080CE9002B4E0FEA3E0FF17
:107661009002B0E06E7003A3E06F70459002AEE04F
:10767100FFA3E09002B8CFF0A3EFF09002B2E0FEDA
:10768100A3E0FF9002B8E0FCA3E0FDC39FEC9E5095
:1076910020AF059002B0E0FCA3E0FD9002B612809D
:1076A100459002B9E004F070D29002B8E004F08095
:0176B100CA0E
:0176B20022B5
:1076B30090029EEEF0A3EFF09002A2EAF0A3EBF0AB
:1076C300A3E0FEA3E0FF9002AAEEF0A3EFF0900286
:1076D3009EE0FBA3E09002ACCBF0A3EBF0C3EF9DE5
:1076E300FFEE9C9002A8F0A3EFF0C39002A9E094F0
:1076F300019002A8E064809480406EE0FEA3E0FF66
:107703009002ABE09FFD9002AAE09EFC9002ACE0E9
:10771300FAA3E0FB9002AAE0FFA3E09002B4CFF04B
:10772300A3EFF09002A6E0FFA3E09002B6CFF0A390
:10773300EFF09002ACE0FEA3E0FF1275F99002AB0C
:10774300E024FFF09002AAE034FFF09002ADE004E1
:10775300F070069002ACE004F09002A9E024FEF081
:097763009002A8E034FFF08081DF
:01776C0022FA
:0E60E90090029EEEF0A3EFF0A3ECF0A3EDF01A
:1060F700E49002A7F0A3F0A3EAF0A3EBF025E0FFFA
:10610700EA33FEC374039F9002AEF0E49E9002ADA3
:10611700F09002A9E0FEA3E0FF9002A7E0FCA3E055
:10612700FDD39FEE6480F8EC648098400302621808
:106137009002A6E060489002ABECF0A3EDF090026D
:10614700A9E0FEA3E0FFD39002ACE09FEE6480F8E5
:106157009002ABE064809850389002A0E0FCA3E086
:10616700FD9002A7E0FAA3E09002AB1265879002C8
:10617700ACE004F070C89002ABE004F080C090027D
:10618700A0E0FCA3E0FD9002A7E0FAA3E0A312655C
:10619700879002A8E004F070069002A7E004F0C31D
:1061A7009002ADE06480948050259002A7E0FEA3A2
:1061B700E07802C333CE33CED8F92406FFE43EFE9F
:1061C7009002AEE02FF09002ADE03EF00261189031
:1061D70002A9E0FEA3E0FFC39002A8E09FFF9002A0
:1061E700A7E09EFEEF7802C333CE33CED8F9240A58
:1061F700FFE43EFE9002AEE02FF09002ADE03EF0ED
:106207009002AAE024FFF09002A9E034FFF00261B7
:01621700186E
:016218002263
:0E73B50090029EEFF0A3ECF0A3EDF0A3EBF03E
:1073C3007E00C0077A00A3E0FFA3E09002E0CFF0C5
:1073D300A3EFF0D00712808390029EE0FF9002A1FA
:1073E300E0C39FFFE49400CF2401CF34009002ACAC
:1073F300F0A3EFF090029FE0FEA3E0FFC39002A38F
:10740300E09FFF9002A2E09ECF2401CF34009002C0
:10741300AAF0A3EFF0E49002A6F0A3F09002AAE092
:10742300FEA3E0FFC39002A7E09F9002A6E09E5058
:1074330047E49002A8F0A3F09002ACE0FEA3E0FFC3
:10744300C39002A9E09F9002A8E09E501B9002A463
:10745300E0FEA3E0FF1284DA9002A9E004F070D802
:107463009002A8E004F080D09002A7E004F070AC92
:087473009002A6E004F080A4E1
:01747B0022EE
:107D4F00E0FFA3E090044DCFF0A3EFF09003EBE042
:047D5F00FEA3E0FFA0
:107D6300900445EEF0A3EFF0A3ECF0A3EDF0EB4AA3
:107D7300605190044BE07002A3E06047900445A378
:107D8300E0F9FFC007A3E0FCA3E0FDE92B14FB909F
:107D9300044BE0FEA3E0FF900447E0F8A3E02FFFCD
:107DA300E83ECF24FFCF34FF9002A2F0A3EFF09080
:107DB300044DE0FFA3E09002A4CFF0A3EFF0D007BF
:047DC3001273B52260
:1030F5009003EBEEF0A3EFF0A3ECF0A3EDF0A3EA61
:04310500F0A3EBF058
:10310900E49003F8F0A3F09003F1E0FEA3E030E0CF
:103119000A2401FFE43E9003F8800B9003F1E0FFDD
:10312900A3E09003F8CFF0A3EFF09003F3E0F97573
:10313900F002A4FFC39003F0E09FFB9003EFE0953A
:10314900F0FAE9FF9003ECE02FFF9003EBE0340085
:10315900FEC0079003EDE0FCA3E0FD9003F8E0C397
:1031690013FFA3E01390044BCFF0A3EFF09003F407
:10317900E0FFA3E090044DCFF0A3EFF0D007127D5C
:10318900639003F3E0F975F002A4FFC39003F0E044
:103199009FFB9003EFE095F0FAE9FF9003ECE02F35
:1031A900FF9003EBE03400FEC006C0079003F8E08F
:1031B900C313FEA3E013FF9003EEE02FFD9003ED90
:1031C900E03EFC9003F8E0C313FFA3E01390044B27
:1031D900CFF0A3EFF09003F6E0FFA3E090044DCF0A
:1031E900F0A3EFF0D007D006127D639003F3E0F966
:1031F900FB7A009003EEE02BFD9003EDE03AFC90A2
:1032090003F8E0C313FEA3E013FFE9F582C3EF95CA
:1032190082FFEE940090044BF0A3EFF09003F412B8
:103229007D4F9003F8E0C313FEA3E013FF9003EE74
:10323900E02FFD9003EDE03EFC9003F3E0F9FB7A0B
:10324900009003F8E0C313FEA3E013FFE9F582C37E
:10325900EF9582FFEE940090044BF0A3EFF09003FA
:10326900F6127D4F9003EFE0FEA3E0FF9003ECE040
:103279002FFF9003EBE03EFE9003F3E0F9FD7C00A5
:10328900C3EF9DFFEE9CFEC006C0079003EEE02D44
:10329900FD9003EDE03CFCE9FB7A009003F8E0C304
:1032A90013FEA3E013FFE9F582C3EF9582FFEE94C5
:1032B9000090044BF0A3EFF09003F4E0FFA3E0903B
:1032C900044DCFF0A3EFF0D007D006127D63900331
:1032D900EFE0FEA3E0FF9003ECE02FFF9003EBE0AB
:1032E9003EFE9003F3E0F9FB7A00C3EF9BFFEE9AF1
:1032F900FEC006C0079003F8E0C313FEA3E013FF66
:103309009003EEE02FFD9003EDE03EFC9003F8E022
:10331900C313FEA3E013FFE9F582C3EF9582FFEE25
:10332900940090044BF0A3EFF09003F6E0FFA3E0C4
:1033390090044DCFF0A3EFF0D007D006127D639033
:1033490003F3E0FDFF9003ECE02FFF9003EBE03483
:1033590000FEC007EDFF9003EEE02FFD9003EDE0C6
:103369003400FC9003F3E0FB7A00A3E0FFA3E090B4
:1033790002A4CFF0A3EFF0A37401F0D0071260E923
:103389009003F3E0F9FF9003ECE02FFF9003EBE0EB
:103399003400FEC006C0079003F8E0FEA3E0FF90EA
:1033A90003EEE02FFF9003EDE03EFEE9FB7A00C358
:1033B900EF9BFFEE9ACF24FFFDEF34FFFC9003F65D
:1033C900E0FFA3E09002A4CFF0A3EFF0A37401F013
:1033D900D007D0061260E99003EFE0FEA3E0FF906A
:1033E90003ECE02FFF9003EBE03EFE9003F3E0F9DE
:1033F900FD7C00C3EF9DFFEE9CCF24FFCF34FFFE81
:10340900C0079003EEE02DFD9003EDE03CFCE9FBE5
:103419007A009003F4E0FFA3E09002A4CFF0A3EFB9
:10342900F0A37401F0D0071260E99003EFE0FEA366
:10343900E0FF9003ECE02FFF9003EBE03EFE9003EA
:10344900F3E0F9FDC3EF9DFFEE9400CF24FFCF34E5
:10345900FFFEC006C0079003F8E0FEA3E0FF90035B
:10346900EEE02FFF9003EDE03EFEE9FB7A00C3EFAB
:103479009BFFEE9ACF24FFFDEF34FFFC9003F6E0AB
:10348900FFA3E09002A4CFF0A3EFF0A37401F0D062
:0634990007D0060260E905
:105FB1009002B0EEF0A3EFF0A3ECF0A3EDF0AF038D
:105FC1009002BC74FFF0A3741BF0A37424F0EF24BF
:105FD100E0FFE434FFFEEFC4F8540FC868FFEEC4DD
:105FE10054F0489002BD8FF012153C9002B9E07058
:105FF100369002B0E0FAA3E0FBFFAE02C006C00794
:10600100A3E0FCA3E0FDEB2407FBE43AFA9002B223
:10601100E0FEA3E0240FFFE43E9002E0F0A3EFF0E6
:10602100D007D0061280839002B9E06401703690E7
:1060310002B0E0FAA3E0FBFFAE02C006C007A3E096
:10604100FCA3E0FDEB2407FBE43AFA9002B2E0FE88
:10605100A3E0240FFFE43E9002E0F0A3EFF0D007AD
:10606100D006128083E49002BBF09002BBE0C3949F
:1060710010748094805070E49002BAF09002BAE0FB
:10608100C3940874809480504C9002BCE0FBA3E060
:10609100FAA3E0F912146DFD7C009002BAE0FFC38F
:1060A10074079FFF7E007401A807088005C333CEE3
:1060B10033CED8F9FFEE5CFEEF5D4E60059002B580
:1060C10080039002B7E0FEA3E0FF1284DA9002BAE7
:1060D100E004F080A79002BDE475F00112153C9038
:0760E10002BBE004F0808324
:0160E8002295
:105CFF009003CBEEF0A3EFF0A3ECF0A3EDF0A3EB4A
:075D0F00F0A3EAF0A3E9F0A4
:105D16009003D6E070369003CBE0FAA3E0FBFFAE2B
:105D260002C006C007A3E0FCA3E0FDEB240FFBE4E2
:105D36003AFA9003CDE0FEA3E0240FFFE43E900282
:105D4600E0F0A3EFF0D007D0061280839003D6E0F0
:105D5600640170369003CBE0FAA3E0FBFFAE02C00D
:105D660006C007A3E0FCA3E0FDEB240FFBE43AFA30
:105D76009003CDE0FEA3E0240FFFE43E9002E0F0A6
:105D8600A3EFF0D007D006128083E49003D9F090F9
:105D960003D9E0FFC39440748094804003025E6A96
:105DA6009003CFE0FBA3E0FAA3E0F912146DFE75B1
:105DB600F023EFA42414F582E5F03421F583E4936F
:105DC6006E6003025E61900001121486FF9003D993
:105DD600E075F023A42415F582E5F03421F583E47B
:105DE600936F70779003D7F09003D7E0FFC39420AA
:105DF6007480948050659003D9E075F023A424172D
:105E0600F582E5F03421F583E5822FF582E43583CA
:105E1600F583E4939003DAF0E49003D8F09003D886
:105E2600E0C394087480948050299003DAE054808B
:105E3600648070059003D280039003D4E0FEA3E053
:105E4600FF1284DA9003DAE025E0F09003D8E0044C
:105E5600F080CA9003D7E004F0808D9003D9E00467
:045E6600F0025D9554
:015E6A002215
:106C920090029EEEF0A3EFF0A3ECF0A3EDF0A3EBD5
:076CA200F0A3EAF0A3E9F002
:106CA900E49002A9F09002A2E0FBA3E0FAA3E0F9C4
:106CB90012146D7003026D80C39480748094809067
:106CC90002A9E075F0085055A4FF90029FE02FFF3C
:106CD90090029EE035F0FEC0079002A0E0FCA3E020
:106CE900FD12146DFB9002A5E0FFA3E09002B5CF61
:106CF900F0A3EFF09002A7E0FFA3E09002B7CFF076
:106D0900A3EFF0E4A3F0D007125FB19002A9E00469
:106D1900F09002A3E475F00112153C8088A4FF905D
:106D2900029FE02FFF90029EE035F0FEC00790021F
:106D3900A0E0FCA3E0FDA3E0FBA3E0FAA3E0F9A334
:106D4900E0FFA3E09002B1CFF0A3EFF09002A7E03B
:106D5900FFA3E09002B3CFF0A3EFF0E4A3F0D007D4
:106D690012410F9002A3E475F00212153C9002A99A
:076D7900E02402F0026CAE01
:016D800022F0
:106D8100900424EFF0A3ECF0A3EDF0A3EBF0A3EA61
:046D9100F0A3E9F092
:106D9500E490042EF0900427E0FBA3E0FAA3E0F9C9
:106DA50012146D7003026E6EC3948074809480908B
:106DB500042EE075F0085055A4FF900426E02FFD41
:106DC500900425E035F0FCC005900424E0FF7E002A
:106DD50012146DFB90042AE0FDA3E09002B5CDF0FE
:106DE500A3EDF090042CE0FDA3E09002B7CDF0A355
:106DF500EDF0A37401F0D005125FB190042EE0040C
:106E0500F0900428E475F00112153C8088A4FF90E9
:106E15000426E02FFD900425E035F0FCC005900424
:106E250024E0FF7E00900427E0FBA3E0FAA3E0F94D
:106E3500A3E0FDA3E09003D2CDF0A3EDF090042CE8
:106E4500E0FDA3E09003D4CDF0A3EDF0A37401F031
:106E5500D005125CFF900428E475F00212153C90F1
:096E6500042EE02402F0026D9AF3
:016E6E002201
:0B4F9D0090029EEFF0A3ECF0A3EDF0FB
:104FA800E47B107A27F9F8A3E0FCA3E0FDA3E0FE78
:104FB800A3E0FF1216DAE47B0AFAF9F81216DA907F
:104FC80002A9EBF0E47BE87A03F9F89002A1E0FC8F
:104FD800A3E0FDA3E0FEA3E0FF1216DAE47B0AFAE1
:104FE800F9F81216DA9002AAEBF0E47B64FAF9F801
:104FF8009002A1E0FCA3E0FDA3E0FEA3E0FF1216EF
:10500800DAE47B0AFAF9F81216DA9002ABEBF0E46C
:105018007B0AFAF9F89002A1E0FCA3E0FDA3E0FE08
:10502800A3E0FF1216DAE47B0AFAF9F81216DA900E
:1050380002ACEBF0E47B0AFAF9F89002A1E0FCA3D9
:10504800E0FDA3E0FEA3E0FF1216DA9002ADEBF05C
:10505800E47B107A27F9F89002A1E0FCA3E0FDA315
:10506800E0FEA3E0FF1216DAEC4D4E4F6009900205
:10507800AF7405F002512AE47BE87A03F9F890024C
:10508800A1E0FCA3E0FDA3E0FEA3E0FF1216DAEC2A
:105098004D4E4F60099002AF7404F002512AE47B30
:1050A80064FAF9F89002A1E0FCA3E0FDA3E0FEA3F6
:1050B800E0FF1216DAEC4D4E4F60089002AF740311
:1050C800F0805FE47B0AFAF9F89002A1E0FCA3E023
:1050D800FDA3E0FEA3E0FF1216DAEC4D4E4F600888
:1050E8009002AF7402F0803A9002A1E0FCA3E0FDC8
:1050F800A3E0FEA3E0FFEC4D4E4F60089002AF74B2
:1051080001F0801EE4FFFEFDFC9002A1E0F8A3E0A0
:10511800F9A3E0FAA3E0FBC312178770059002AF6A
:1051280004F0E49002AEF09002AFE0FB9002AEE033
:10513800C39B505DE0FA75F008A4FF90029EE07CE6
:10514800002FFFEC35F0FEC007A3E0FCA3E0FDC391
:1051580074059BFFEA2F24A9F582E43402F583E065
:105168002430FB9002A5E0FFA3E09002B5CFF0A3A6
:10517800EFF09002A7E0FFA3E09002B7CFF0A3EF13
:10518800F0E4A3F0D007125FB19002AEE004F08023
:015198009680
:0151990022F3
:1078DE00900463EFF0A3ECF0A3EDF0A3EAF0FEA3A7
:1078EE00EBF0FF7C007D0A1214E77C007D0A121477
:1078FE00E7ED2430FBC003900463E0FF7E00A3E0BD
:10790E00FCA3E0FD900468E0FBA3E09002B5CBF091
:10791E00A3EBF090046AE0FBA3E09002B7CBF0A3D8
:10792E00EBF0E4A3F0D003125FB1900463E02408FF
:10793E00FFE433FEC006C007900466E0FEA3E0FF3E
:10794E007C007D0A1214E7ED2430FBA3E0FFA3E0D8
:10795E009002B5CFF0A3EFF090046AE0FFA3E090A1
:10796E0002B7CFF0A3EFF0E4A3F0900464E0FCA321
:09797E00E0FDD007D006025FB164
:0848CB0090029EEEF0A3EFF055
:1048D3009002A2E4F0A37464F09002A0E4F0A37445
:1048E30019F09002A0E0FEA3E0FFC39450EE6480B1
:1048F3009480501CA3E0FCA3E0FD90029E1280452F
:104903009002A1E004F070DA9002A0E004F080D2FB
:104913009002A0E4F0A374A0F09002A0E0FEA3E054
:10492300FFC394D7EE64809480501CA3E0FCA3E003
:10493300FD90029E1280459002A1E004F070DA908F
:1049430002A0E004F080D29002A3E004F07006908D
:1049530002A2E004F0C39002A3E094669002A2E0F6
:104963006480948050030248DC9002A0E4F0A374B6
:104973005AF09002A0E0FEA3E0FFD39496EE648089
:104983009480504BEF64784E6035A3E4F0A37464D5
:10499300F09002A2E0FCA3E0FDC39469EC64809470
:1049A30080501C9002A0A3E0FF90029E12804590CD
:1049B30002A3E004F070DA9002A2E004F080D29047
:1049C30002A1E0240AF09002A0E03400F080A3905A
:1049D30002A0E4F0A37475F09002A0E0FEA3E0FF50
:1049E300C3947BEE648094804003024ABAC3EF947D
:1049F30078EE648094805056C374DB9F9002A3F0DA
:104A0300E49E9002A2F0E49002A4F0A3F09002A02E
:104A1300A3E0FFA3E0FCA3E0FD90029E128045907B
:104A230002A3E0240AF09002A2E03400F09002A571
:104A3300E004F070069002A4E004F0C39002A5E045
:104A430094039002A4E06480948040C18058900253
:104A5300A1E024ECFE9002A0E034FF9002A2F0A3B8
:104A6300CEF0E4A3F0A3F09002A0A3E0FFA3E0FC48
:104A7300A3E0FD90029E1280459002A3E0240AF079
:104A83009002A2E03400F09002A5E004F0700690DA
:104A930002A4E004F0C39002A5E094039002A4E012
:104AA3006480948040C19002A1E004F070069002FB
:104AB300A0E004F00249DB9002A0E4F0A37477F0D5
:104AC3009002A2E4F0A3748CF09002A2E0FCA3E0B5
:104AD300FDC394C8EC64809480501C9002A0A3E0B2
:104AE300FF90029E1280459002A3E004F070DA90DA
:104AF30002A2E004F080D29002A1E004F0700690DC
:104B030002A0E004F0C39002A1E094799002A0E037
:064B13006480948040AABA
:014B19002279
:0D855A0043A208E4F5CF75CDC075CED02248
:0E854C008FCFE5CD548060FA75CDC0AFCF2241
:1083A700EF14600E1460121460162403701853CE75
:1083B700FC2253CEFC43CE012253CEFC43CE0222F5
:0783C70053CEFC43CE03225C
:0B8456004803E30299FC7CFFF0015F8B
:10519A00E49003B8F0A3F0A3F0A3F0A3F030B703B0
:1051AA0002536C7F01FE12823530B70302536CD270
:1051BA00CCC2C47F021283A77F9012854C9003BD94
:1051CA00EFF0E4FF12854C9003BDEFF07FD012851B
:1051DA004C9003BEEFF0E4FF12854C9003BFEFF052
:1051EA007F9012854C9003C0EFF0E4FF12854C903B
:1051FA0003C1EFF07FD012854C9003C2EFF0E4FFB9
:10520A0012854C9003C3EFF07F9012854C9003C433
:10521A00EFF09003BDE075F020A4FFA3E013131391
:10522A00541FFDEF4DFF9003C7E5F0F0A3EFF09098
:10523A0003C1E075F020A4FFA3E0131313541FFD6C
:10524A00EF4DFF9003C9E5F0F0A3EFF09003BFE044
:10525A0075F020A4FFA3E0131313541FFDEF4DFFB5
:10526A009003C5E5F0F0A3EFF09003C3E075F020DA
:10527A00A4FFAEF0A3E0131313541FFDEF4DFFC3B9
:10528A009003C6E09F9003C5E09E4012EF2405FDFF
:10529A00E43EFCC3A3E09D9003C5E09C402290033A
:1052AA00C5E0FCA3E0FDD39FEC9E400302535EEDF4
:1052BA002405FDE43CFCC3EF9DEE9C400302535ED3
:1052CA009003C7E0FCA3E0FDA3E0FAA3E0FBD39DB3
:1052DA00EA9C5014EB2405FDE43AFCC39003C8E0B1
:1052EA009D9003C7E09C402A9003C9E0FCA3E0FD1F
:1052FA009003C7E0FAA3E0FBD39DEA9C5056EB2447
:10530A0005FDE43AFCC39003CAE09D9003C9E09C02
:10531A0050429003BC7401F09003C6E02FFF900343
:10532A00C5E03EC313FEEF13FF9003B8EEF0A3EF00
:10533A00F09003C9E0FEA3E0FF9003C8E02FFF90BE
:10534A0003C7E03EC313FEEF13FF9003BAEEF0A3C8
:10535A00EFF08005E49003BCF0E4FF1283A7D2C407
:08536A00C2CC7B017A0379B883
:015372002218
:1069B80012519A78707C047D017E007F051214477D
:1069C800900470E0FFA3E090046CCFF0A3EFF09088
:1069D8000472E0FFA3E090046ECFF0A3EFF0900301
:1069E800E3E0FCA3E0FDEC1212BD7B007A40791CC9
:1069F800784612121BC004C005C006C00790046C7C
:106A0800E0FCA3E0FDE41212BDD003D002D001D017
:106A180000121112C004C005C006C0079003E7E0C9
:106A2800FCA3E0FDEC1212BDD003D002D001D000CF
:106A38001210211212F6900470EEF0A3EFF09003FA
:106A4800E5E0FCA3E0FDEC1212BD7B007A40791C66
:106A5800784612121BC004C005C006C00790046E19
:106A6800E0FCA3E0FDE41212BDD003D002D001D0B7
:106A780000121112C004C005C006C0079003E9E067
:106A8800FCA3E0FDEC1212BDD003D002D001D0006F
:106A98001210211212F6900472EEF0A3EFF07B01AF
:046AA8007A04797083
:016AAC0022C7
:05858B00D294D2B322DE
:04846100410493003F
:1080D6009003381218A8000000007FFF12854CEFAD
:1080E600F47002FF22900338E0FCA3E0FDA3E0FE5B
:1080F600A3E02401FFE43EFEE43DFDE43CFC9003E6
:108106003812189C74FFFFFEFD7C00900338E0F8DF
:10811600A3E0F9A3E0FAA3E0FBC312178740BB7FF5
:018126000157
:018127002235
:07858400D2C67FFF02854C07
:10850F00C2C61280D6EF7002FF221285847F01222D
:0878270090033674FFF07F109E
:05782F00900331EFF0B1
:10783400E4900337F012858412850FEF60037FFF15
:1078440022D2C67FFF12854C7FFF12854C7FFF1228
:10785400854CC2C6900331E04440FF12854C90032E
:1078640032E0FCA3E0FDA3E0FEA3E0FF78181217CA
:107874009812854C900332E0FCA3E0FDA3E0FEA344
:10788400E0FF781012179812854C900332E0FCA3A5
:10789400E0FDA3E0FEA3E0FF780812179812854CE0
:1078A400900332A3A3A3E0FF12854C900336E0FFBC
:1078B40012854C900331E0640C70057FFF12854CF7
:1078C400900337741FF07FFF12854CEF30E70A9066
:0978D4000337E0FE14F0EE70ED44
:0178DD002288
:105865007F031283A7E49002DDF09002DDE0C3948C
:105875000A74809480500D7FFF12854C9002DDE004
:1058850004F080E69002D7E4F0A37414F09003329C
:105895001218A8000000009003367495F0E4FF127A
:1058A500782F9002D6EFF07E006401600CA374FFA0
:1058B500F5F012155245F070D4E4900493F0EF64BE
:1058C500014E60030259D89003321218A800000156
:1058D500AA9003367487F07F0812782FEF64016071
:1058E500030259D89002DDF09002DDE0C394047400
:1058F500809480501C7FFF12854C9002DDE024D9F6
:10590500F582E43402F583EFF09002DDE004F080E7
:10591500D79002DBE0640160030259D8A3E064AAD2
:1059250060030259D89002D774FFF0A314F09003D6
:10593500321218A8000000009003367401F07F377A
:1059450012782F9003321218A840000000900336F9
:105955007401F07F2912782F9002D6EFF0600CA326
:1059650074FFF5F012155245F070C39002D7E07040
:1059750002A3E060599003321218A80000000090BD
:1059850003367401F07F3A12782FEF70419002DDF3
:10599500F09002DDE0C3940474809480501C7FFF76
:1059A50012854C9002DDE024D9F582E43402F583BA
:1059B500EFF09002DDE004F080D79002D9E090048A
:1059C5009330E6057406F0800A7404F08005E490CF
:1059D5000493F0128584E4FF1283A7900493E0609A
:0E59E500037F00229002D6E0FF6001227FAA1D
:0159F3002291
:10753E0090044F12189C900453EBF0A3EAF0A3E9C9
:01754E00F04C
:10754F0012858412850FEF60037FFF22900493E072
:10755F006406601990044FE0FCA3E0FDA3E0FEA3D6
:10756F00E0FF78091217AB90044F12189C90044F4C
:10757F00E0FCA3E0FDA3E0FEA3E0FF9003321218AE
:10758F009C9003367401F07F1112782F900458EFFE
:10759F00F0704E7FFF12854CEF64FE70F69004562C
:1075AF00F0A3F07FFF12854C900453E0FBA3E0FAA9
:1075BF00A3E0F9A3E0FCA3E0F5828C83EF1214C5DE
:1075CF00900457E004F07006900456E004F0C39066
:1075DF000456E0940240CC7FFF12854C7FFF12854A
:0975EF004C128584900458E0FF61
:0175F8002270
:106BA0009003FA12189C9003FEEBF0A3EAF0A3E91D
:016BB000F0F4
:106BB100E4900407F0900401E0FCA3E0FDA3E0FEF3
:106BC100A3E0FF90033212189C127827E490040886
:106BD100F09003FAE0FCA3E0FDA3E0FEA3E0FF9048
:106BE100033212189C90033674FFF07F1112782F34
:106BF100900407EFF0A3E004F0EF600AE0C3940A09
:106C01007480948040CB900408E0C3940A7480940B
:106C11008040037F04227FFF12854CEF64FE70F6F3
:106C2100900405F0A3F0900405E0FEA3E0FFE4FC6E
:106C3100FD900401E0F8A3E0F9A3E0FAA3E0FBD39F
:106C4100121787402F7FFF12854C9003FEE0FBA3B4
:106C5100E0FAA3E0F9900405E0FCA3E0F5828C835F
:106C6100EF1214C5900406E004F07006900405E0EC
:106C710004F080B27FFF12854C7FFF12854C900398
:106C8100321218A8000002001278271285847F00B2
:016C910022E0
:1082A500464C4153485F773235783136202075701A
:1082B500646174652E2E2E005468652073656374A1
:1082C5006F723A0055706461746520636F6D706CF0
:0682D500657465A3A10021
:0F851F00E4C2B67F0512854C7FFF12854CD2B6A1
:01852E00222A
:0A857200C2B67F0612854CD2B62275
:10812800E4900491F0A3F0C2B67F9012854CE4FF6E
:1081380012854CE4FF12854CE4FF12854C7FFF1238
:10814800854CEFFE900491E04EF0A3E0F07FFF1223
:10815800854C900491E0FEA3E04FFF900491EEF06F
:06816800FEA3EFF0D2B609
:01816E0022EE
:0F7987009002DAEBF0A3EAF0A3E9F0A312189C48
:10799600C2B67F0312854C9002DDE0FCA3E0FDA396
:1079A600E0FEA3E0FF781012179812854C9002DDD6
:1079B600E0FCA3E0FDA3E0FEA3E0FF780812179821
:1079C60012854C9002DDA3A3A3E0FF12854CE49040
:1079D60002E3F0A3F09002E1E0FEA3E0FFC3900211
:1079E600E4E09F9002E3E09E502F7FFF12854C90CB
:1079F60002DAE0FBA3E0FAA3E0F99002E3E0FCA3DD
:107A0600E0F5828C83EF1214C59002E4E004F07076
:0B7A1600C49002E3E004F080BCD2B694
:017A21002242
:08857C0012851FEF20E0F92237
:0F7A220090042FEBF0A3EAF0A3E9F0A312189C55
:107A3100128572C2B67F0212854C900432E0FCA31B
:107A4100E0FDA3E0FEA3E0FF781012179812854C29
:107A5100900432E0FCA3E0FDA3E0FEA3E0FF780880
:107A610012179812854C900432A3A3A3E0FF12854C
:107A71004CE4900438F0A3F0900436E0FEA3E0FF5C
:107A8100A3E0FCA3E0FDC39FEC9E502690042FE0F1
:107A9100FBA3E0FAA3E0F98D828C83121486FF1216
:107AA100854C900439E004F070CE900438E004F085
:077AB10080C6D2B602857CFD
:0F6E6F0090043AEBF0A3EAF0A3E9F0A312189C09
:106E7E0090043DA3A3A3E0FFE4C39FFF740194001D
:106E8E00FE900443F0A3EFF0900441E0FCA3E0FD7C
:106E9E00D39FEC9E5006A3ECF0A3EDF090043DE0E2
:106EAE00FCA3E0FDA3E0FEA3E0FF900443E0FBA300
:106EBE00E0900436CBF0A3EBF090043AE0FBA3E0B5
:106ECE00FAA3E0F9127A22900443E0FEA3E0FF90C9
:106EDE000441E06E7003A3E06F606F900443E0FE28
:106EEE00A3E0FF90043BEE8FF012153C90043DE0C2
:106EFE00F8A3E0F9A3E0FAA3E0FBE4FCFDEB2FFF1F
:106F0E00EA3EFEED39FDEC38FC90043D12189C90E3
:106F1E000443E0FEA3E0FFC3900442E09FFF900411
:106F2E0041E09EFEF0A3EFF0D39400EE9401400AF0
:106F3E00A37401F0A3E4F0026EAA900441E0FFA353
:0A6F4E00E0A3CFF0A3EFF0026EAA5B
:016F58002216
:107EA10090048A12189C90048AE0FCA3E0FDA3E0F0
:107EB100FEA3E0FFE4FB7A10F9F812164F90048A52
:107EC10012189C12857212857CC2B67F2012854CD5
:107ED10090048AE0FCA3E0FDA3E0FEA3E0FF78109C
:107EE10012179812854C90048AE0FCA3E0FDA3E0F0
:107EF100FEA3E0FF780812179812854C90048AA31C
:0C7F0100A3A3E0FF12854CD2B602857CE1
:1056CD00900409EBF0A3EAF0A3E9F0A3ECF0A3ED4D
:0156DD00F0DC
:1056DE00E4900411F0A3F0AF05AE04FCFD127EA120
:1056EE0090040CE0FEA3E0FF7C107D00121A0190E6
:1056FE00041312189C900409E0FBA3E0FAA3E0F94E
:10570E00125E6B90040EEFF07BFF7A8279A5900209
:10571E00A5E4F0A3741FF074FFA3F0A3F0E4FDFC66
:10572E00FFFE126C927BFF7A8279BD9002A5E4F0A7
:10573E00A3741FF074FFA3F0A3F07D107C00E4FFB0
:10574E00FE126C9290040EE060030258649002B751
:10575E007401F0A37404F0A3740FF07B017A007946
:10576E002D7D007C0212349F900412E004F070062E
:10577E00900411E004F0D3900412E0940890041108
:10578E00E09400404D90040DE004F0700690040C7F
:10579E00E004F090040CE0FEA3E0FFE4FCFD127EBA
:1057AE00A1900411E4F0A304F090040CE0FEA3E039
:1057BE00FFE4FCFD9002A112189C9002A574F8F073
:1057CE00A3E4F074FFA3F0A3F07D107C007F5812C9
:1057DE004F9D900413E0FCA3E0FDA3E0FEA3E0FFC9
:1057EE0090040FE0FBA3E0900441CBF0A3EBF07B21
:1057FE00017A00792D126E6F900413E0F8A3E0F990
:10580E00A3E0FAA3E0FB90040FE0FEA3E0FFE4FCAC
:10581E00FDEB2FFFEA3EFEED39FDEC38FC90041354
:10582E0012189C90040FE064027002A3E070030251
:10583E00575B7BFF7A8279C9E49002A5F0A3F074DE
:10584E00FFA3F0A3F07D207C00E4FFFE126C927F9C
:06585E00E87E0312823512
:015864002221
:04846500410494003A
:1084E500EFFD7C0064017004D2CCC2C7ED4C700472
:0584F500D2C7C2CC2239
:108347009002A4EBF0A3EAF0A3E9F09002A274FF75
:10835700F5F012155245F060169002A4E0FBA3E475
:0F83670075F001121552A9F0FAED1214B380DC73
:0183760022E4
:1082DB007F011284E57B017A7779009002A2740604
:1082EB00F0A37480F0E4FD1283477B017A0F7900D1
:1082FB009002A27468F0A3E4F01283479004947484
:06830B0001F01F0284E5F1
:10776D009004751218A8000000007F011284E590A6
:10777D0004791218A800000000E47F407E03FDFC90
:10778D00900479E0F8A3E0F9A3E0FAA3E0FBC312BB
:10779D0017875060900479A3A3E0FEA3E0907700D3
:1077AD0075F0021218FDEE25E02583F583E0FEA3AA
:1077BD00E04E601F900475E0FCA3E0FDA3E0FEA386
:1077CD00E02401FFE43EFEE43DFDE43CFC90047545
:1077DD0012189C900479E0FCA3E0FDA3E0FEA3E069
:1077ED002401FFE43EFEE43DFDE43CFC90047912EF
:1077FD00189C8085E4FF1284E5E47F64FEFDFC9017
:10780D000475E0F8A3E0F9A3E0FAA3E0FB12164F2C
:0A781D00E47B407A03F9F80216DA62
:08621900900459EEF0A3EFF030
:10622100E4A3F0A3F090045FF0A3F0900494E07075
:10623100031282DB900459E0FCA3E0FD4C700302E1
:106241006344AE04ED7805CEC313CE13D8F9FF90A5
:10625100045DEEF0A3EFF0ED541F600BE004F0706D
:106261000690045DE004F090045B7403F0A3743FB6
:10627100F090045BE0FEA3E0FFC3EE940050030244
:106281006344EF25E0FFEE33FE74002FF58274774F
:106291003EF583E0FEA3E04E7010900460E004F050
:1062A100700F90045FE004F08007E490045FF0A3B6
:1062B100F090045DE0FEA3E0FFA3E06E7003A3E0B5
:1062C1006F706F900461F0A3F090045DE0FEA3E0B5
:1062D100FFC3900462E09F900461E09E50429004ED
:1062E1005DE0FCA3E0FD900461E0FEA3E0FF90040B
:1062F1005CE02FFF90045BE03EFEEF25E0FFEE3314
:10630100FE74002FF58274773EF583ECF0A3EDF077
:10631100900462E004F070B1900461E004F080A99F
:1063210090045BE0FEA3E07805C333CE33CED8F909
:10633100FF2290045CE024FFF090045BE034FFF066
:076341000262727EFF7FFF84
:016348002232
:08720600900484EEF0A3EFF008
:10720E00900494E070061282DB7F0122900484E0E9
:0D721E00FEA3E0FFC3EE946840030272DFA0
:10722B00EF7805CEC313CE13D8F9FF900486EEF09A
:10723B00A3EFF0E025E0FF900486E033FE74002F0F
:10724B00F58274773EF583E0FFA3E0900488CFF0DE
:10725B00A3EFF0E4FDFCD3900489E09DEC6480F88F
:10726B00900488E06480984028900487E02DFF907C
:10727B000486E03CFEEF25E0FFEE33FE74002FF5B5
:10728B008274773EF583E4F0A3F00DBD00010C8012
:10729B00C5E4FCFD900488E0FEA3E07805C333CE83
:1072AB0033CED8F9FFC3ED9FEE6480F8EC64809881
:1072BB00501F900485E02DFF900484E03CFE740089
:1072CB002FF582740F3EF583E4F00DBD00010C80A9
:0472DB00C37F00224B
:0272DF007F022C
:0172E100228A
:108434007F011284E5E94A70031F800EC3E99400AA
:0D844400FFEA940FFE127206E4FF1284E5B9
:018451002208
:04831100AB07AA0606
:108315007F011284E5AF03126219AB07AA06BAFF03
:108325000FBBFF0CE4FF1284E57B007A0079002285
:10833500E4FF1284E574002BFF740F3AFAA9077B5A
:018345000037
:018346002214
:0385900002586529
:0F5B8300900321EBF0A3EAF0A3E9F0A312189C22
:105B920090032C7401F0900324E0FCA3E0FDA3E049
:105BA200FEA3E0FF78091217AB90033212189C9003
:105BB20003367401F07F1112782FEF6003025CEF5D
:105BC2007FFF12854CEF64FE70F6900328E07002AE
:105BD200A3E06076E490032FF0A3F0900328E0FEA8
:105BE200A3E0FFC3900330E09F90032FE09E501587
:105BF2007FFF12854C900330E004F070DE90032F9B
:105C0200E004F080D6E490032FF0A3F090032AE0A2
:105C1200FEA3E0FFC3900330E09F90032FE09E506D
:105C22006E7FFF12854C900321E0FBA3E475F00127
:105C3200121552A9F0FAEF1214B3900330E004F0F7
:105C420070CA90032FE004F080C2E490032FF0A307
:105C5200F090032AE0FEA3E0FFC3900330E09F90A0
:105C6200032FE09E50297FFF12854C900321E0FB19
:105C7200A3E475F001121552A9F0FAEF1214B390D1
:105C82000330E004F070CA90032FE004F080C29069
:105C92000328E0FEA3E0FFC3E49FFF74029EFEA37D
:105CA200E0FCA3E0FDC3EF9DFFEE9C90032DF0A36B
:105CB200EFF0E4A3F0A3F090032DE0FEA3E0FFC316
:105CC200900330E09F90032FE09E50157FFF1285D6
:105CD2004C900330E004F070DE90032FE004F0807B
:105CE200D67FFF12854C7FFF12854C800690032CD5
:0C5CF200E0FF22128584E490032CF0FFF8
:015CFE002283
:10669A009002CD12189C9002CAEBF0A3EAF0A3E98B
:0166AA00F0FF
:1066AB009002D17401F0EA494B60030267679002D4
:1066BB00CDE0FCA3E0FDA3E0FEA3E0FFEC4D4E4FCD
:1066CB0060719002CDA3A3A3E078091217AB9003DE
:1066DB003212189C9003367401F07F1812782F90A9
:1066EB0002D2EFF060030267A17FFF12854CEFF43B
:1066FB00603A9002D5E0FCA3E0FDA3E0FEA3E0240A
:10670B0001FFE43EFEE43DFDE43CFC9002D5121893
:10671B009C74FFFFFEFD7C009002D5E0F8A3E0F92E
:10672B00A3E0FAA3E0FBC312178740BD7FFE1285DF
:10673B004C805E7FFF12854C7FFF12854C7FFF12D2
:10674B00854C9002D2EFF0541F64056005128584CE
:10675B0080447FFF12854CEF60F88035E49002D3C4
:10676B00F0A3F09002CAE0FBA3E475F001121552FE
:10677B00A9F0FA12146DFF12854C9002D4E004F0CC
:10678B0070069002D3E004F0C39002D3E094024071
:0B679B00D2E49002D1F09002D1E0FFA8
:0167A60022D0
:10837700900315EBF0A3EAF0A3E9F090031374FF61
:10838700F5F012155245F06016900315E0FBA3E4D3
:0F83970075F001121552A9F0FAED1214B380DC43
:0183A60022B4
:107DC70090030EEBF0A3EAF0A3E9F0900309E0F9C2
:107DD700A3E0FAA3E0900311C9F0A3EAF0A3E9F046
:107DE700E4FFFE90030C74FFF5F012155245F060A6
:107DF7003C900311E0FBA3E475F001121552A9F0C2
:107E0700FA12146DFF3395E0FE90030EE0FBA3E436
:107E170075F001121552A9F0FA12146DFD3395E0B1
:0D7E2700FCC3ED9FFDEC9EFEAF054D60B667
:017E3400222B
:0E380200E0FBA3E0FAA3E0900022F91217DE2B
:0638100090031212189C47
:1038160090048EE0F9A3E0FAA3E090031EC9F0A39A
:10382600EAF0A3E9F0E47F02FEFDFC900312E0F863
:10383600A3E0F9A3E0FAA3E0FBC3121787402590A3
:10384600031EE0FBA3E0FAA3E0F99000061217DEE0
:10385600900312E0F8A3E0F9A3E0FAA3E0FBC31299
:1038660017874003023B5890031EE0FBA3E0FAA330
:10387600E0F912146D24FE70030239E61470030297
:103886003A7324026003023B58900312A3A3E0FF9D
:10389600A3E0A3CFF0A3EFF0900316E0C313FEA3BB
:1038A600E013FFE02FF0900316E03EF0E0FEA3E009
:1038B600FFEE5401FCAD07A3F0A3EDF0EEC313FF3A
:1038C600900316E4F0A3EFF0EDF47003EC640160EE
:1038D6004B90031EE0FBA3E0FAA3E0F990000A1266
:1038E600186C900316E0FEA3E0FFEF2BFFEE3AFE06
:1038F600E439FDE438FCA3E0FBA3E0900328CBF019
:10390600A3EBF0A3E4F0A37402F07B017A03791A27
:10391600125B83EF70030239B1023B5890031EE03D
:10392600FBA3E0FAA3E0F990000A12186C900316C4
:10393600E0FEA3E0FFEF2BFFEE3AFEE439FDE438AC
:10394600FC9003287401F0A374FFF0A3E4F0A30431
:10395600F0FB7A03791A125B83EF6003023B5890FF
:10396600031EE0FBA3E0FAA3E0F990000A12186C2C
:10397600900316E0FEA3E0FFEF2BFFEE3AFEE439DC
:10398600FDE438FCEF2401FFE43EFEE43DFDE43CAB
:10399600FCE4900328F0A3F0A3F0A304F0FB7A0361
:1039A600791B125B83EF6003023B5890031BE0FE1A
:1039B60090031AE0FDEDFBAA06900312A3A3A3E071
:1039C6005401FFEF6011EAC4F854F0C868FEEBC476
:1039D600540F48FF023A6FAF03EA540FFE023A6FE4
:1039E60090031EE0FBA3E0FAA3E0F990000A121789
:1039F600DEC004C005C006C007E4FB7A01F9F890F2
:103A06000312E0FCA3E0FDA3E0FEA3E0FF1216DA3A
:103A1600A804A905AA06AB07D007D006D005D0048E
:103A2600EB2FFFEA3EFEE93DFDE83CFCC006C00781
:103A3600900312A3A3A3E025E0FEE433900328F04D
:103A4600A3CEF0A3E4F0A37402F07B017A03791A03
:103A5600D007D006125B83EF6003023B5890031B2E
:103A6600E0FE90031AE0FDEDFFE4FCFD2290031E4C
:103A7600E0FBA3E0FAA3E0F990000A1217DEC00407
:103A8600C005C006C007E47B80FAF9F8900312E08F
:103A9600FCA3E0FDA3E0FEA3E0FF1216DAA804A94A
:103AA60005AA06AB07D007D006D005D004EB2FFF3A
:103AB600EA3EFEE93DFDE83CFCC004C005C006C088
:103AC60007900312A3A3A3E07E00547F7802C333BA
:103AD600CE33CED8F9FF900328EEF0A3EFF0A3E49F
:103AE600F0A37404F07B017A03791AD007D006D0CC
:103AF60005D004125B83EF705990031CE0FFE4FCD1
:103B0600FDFE78101217ABC004C005C006C007A39F
:103B1600E0FFE4FCFDFE78181217ABD003D002D00C
:103B260001D000EF4BFFEE4AFEED49FDEC48FCA844
:103B360004A905AA06AB0790031BE0FEEA4EFA901D
:103B4600031AE0FFEB4FFFEAFEE9FDE8FCEC540F39
:083B5600FC22E47F01FEFDFCEE
:013B5E002244
:0E747C00E0FBA3E0FAA3E0F99000221217DE75
:06748A0090031212189C91
:1074900090048EE0FBA3E0FAA3E0F9900316EBF072
:1074A000A3EAF0A3E9F0900312E0FCA3E0FDA3E05F
:1074B000FEA3E0C39402FFEE9400FEED9400FDEC09
:1074C0009400FC90031212189C9000061217DEEF35
:1074D00024FEFFEE34FFFEED34FFFDEC34FFFC90A4
:1074E0000312E0F8A3E0F9A3E0FAA3E0FBC312174C
:1074F000874006E4FFFEFDFC22900316E0FBA3E0BC
:10750000FAA3E0F9900002121486FFE4FCFDFE905D
:107510000312E0F8A3E0F9A3E0FAA3E0FB12164F90
:10752000900316E0FBA3E0FAA3E0F9900012121812
:0D7530006CEF2BFFEE3AFEED39FDEC38FC60
:01753D00222B
:08634900E0FBA3E0FAA3E0F978
:0B635100900306EBF0A3EAF0A3E9F0D4
:10635C0090048EE0F9A3E0FAA3E090030DC9F0A33A
:10636C00EAF0A3E9F0900306E0FBA3E0FAA3E0F95E
:10637C00E4F5F0121603900306E0FBA3E0FAA3E0A9
:10638C00F99000051217DE90030912189CE47F01A6
:10639C00FEFDFC900309E0F8A3E0F9A3E0FAA3E00A
:1063AC00FBC3121787602590030DE0FBA3E0FAA353
:1063BC00E0F99000061217DE900309E0F8A3E0F96B
:1063CC00A3E0FAA3E0FBC312178740037F012290DE
:1063DC000309E0FCA3E0FDA3E0FEA3E0FFEC4D4EBF
:1063EC004F701CA3E0FBA3E0FAA3E0F912146D6458
:1063FC0003700C90000E1217DE90030912189C907B
:10640C000309E0FCA3E0FDA3E0FEA3E0FF9003067C
:10641C00E0FBA3E0FAA3E0F9900009121828EC4D78
:10642C004E4F6013900309E0FCA3E0FDA3E0FEA334
:10643C00E0FF12748A801190030DE0FBA3E0FAA335
:10644C00E0F990000E1217DE900306E0FBA3E0FAD1
:0B645C00A3E0F990000D1218287F004B
:016467002212
:0859F400E0FBA3E0FAA3E0F9D7
:0B59FC00900306EBF0A3EAF0A3E9F033
:105A070090048EE0F9A3E0FAA3E090030FC9F0A396
:105A1700EAF0A3E9F0900306E0FBA3E0FAA3E0F9BC
:105A27001215682401FFE435F0FE90030DF0A3EF93
:105A3700F04E600C90000D1217DEEC4D4E4F7003C8
:105A47007F032290030EE0540F6003025B6890000F
:105A57000D1217DEEF2401FFE43EFEE43DFDE43CBA
:105A6700FC90000D1218289000091217DEE4FBFACB
:105A7700F9F8C3121787702690030FE0FBA3E0FA2B
:105A8700A3E0F9900004121593FFC390030EE09F63
:105A970090030DE095F05003025B687F03229003AB
:105AA7000FE0FBA3E0FAA3E0F990000212148624AA
:105AB700FFFDE434FFFC90030DE0C4F854F0C86820
:105AC700FEA3E0C4540F48FFEE5CFEEF5D4E60039B
:105AD700025B68900306E0FBA3E0FAA3E0900009ED
:105AE70012380C90030912189CE47F01FEFDFC900C
:105AF7000309E0F8A3E0F9A3E0FAA3E0FBD3121748
:105B07008750037F012290030FE0FBA3E0FAA3E095
:105B1700F99000061217DE900309E0F8A3E0F9A355
:105B2700E0FAA3E0FBC312178740037F0322900329
:105B370009E0FCA3E0FDA3E0FEA3E0FF900306E07D
:105B4700FBA3E0FAA3E0F990000912182812748A5F
:105B5700900306E0FBA3E0FAA3E0F990000D12180A
:105B67002890030DE0F9A3E0FF900306E0FBA3E014
:0B5B7700FAA3E0C98FF01216037F00B4
:015B82002200
:0B7040009002FFEBF0A3EAF0A3E9F0E0
:10704B00126351900305EFF06003E0FF229002FF03
:10705B00E0FBA3E0FAA3E0F990000D1217DEC004E9
:10706B00C005C006C0071215687E00540F7805C313
:10707B0033CE33CED8F9FF900328EEF0A3EFF0A375
:10708B00E4F0A37420F0900302E0FBA3E0FAA3E08A
:10709B00F9D007D006D005D004125B83EF60047FD4
:1070AB000180027F00900305EFF07067900302E010
:1070BB00FBA3E0FAA3E0F912146D700890030574BA
:1070CB0003F0804F90000B12148620E336C003C0F0
:1070DB0002C0019002FFE0FBA3E0FAA3E0F99000ED
:1070EB0002121978900309EBF0A3EAF0A3E9F0A3DD
:1070FB00E4F0A3740BF0D001D002D003127DC7EFE4
:10710B004E60109002FF1259F4900305EFF07003DC
:08711B00027058900305E0FF2B
:017123002249
:0B71240090047DEBF0A3EAF0A3E9F07B
:10712F009004837403F090047DE0FBA3E0FAA3E0E6
:10713F00F990000D1217DEEC4D4E4F70030271E9FE
:10714F0090047DA3A3E090000D1217DEC004C005CC
:10715F00C006C0071215687E00540F7805C333CEE2
:10716F0033CED8F9FF900328EEF0A3EFF0A3E4F0AD
:10717F00A37420F0900480E0FBA3E0FAA3E0F9D021
:10718F0007D006D005D004125B83EF60047F018027
:10719F00027F00900483EFF07040900480E0FBA327
:1071AF00E0FAA3E0F912146DFF70089004837403E2
:1071BF00F0802790000B121486543FFEEF64E560B9
:1071CF0009EF642E6004EE30E31090047D1259F441
:1071DF00900483EFF07003027135900483E0FF6039
:1071EF001590047DE0FBA3E0FAA3E0F990000D12E7
:0671FF0018D90000000099
:017205002266
:1068B400900002121978900308EBF0A3EAF0A3E920
